{
  "_format": "hh-sol-artifact-1",
  "contractName": "TippingContract",
  "sourceName": "contracts/TippingContract.sol",
  "abi": [
    {
      "inputs": [],
      "stateMutability": "nonpayable",
      "type": "constructor"
    },
    {
      "inputs": [
        {
          "internalType": "address",
          "name": "owner",
          "type": "address"
        }
      ],
      "name": "OwnableInvalidOwner",
      "type": "error"
    },
    {
      "inputs": [
        {
          "internalType": "address",
          "name": "account",
          "type": "address"
        }
      ],
      "name": "OwnableUnauthorizedAccount",
      "type": "error"
    },
    {
      "inputs": [
        {
          "internalType": "address",
          "name": "token",
          "type": "address"
        }
      ],
      "name": "SafeERC20FailedOperation",
      "type": "error"
    },
    {
      "anonymous": false,
      "inputs": [
        {
          "indexed": true,
          "internalType": "address",
          "name": "funder",
          "type": "address"
        },
        {
          "indexed": false,
          "internalType": "uint256",
          "name": "amount",
          "type": "uint256"
        }
      ],
      "name": "ContractFunded",
      "type": "event"
    },
    {
      "anonymous": false,
      "inputs": [
        {
          "indexed": true,
          "internalType": "address",
          "name": "owner",
          "type": "address"
        },
        {
          "indexed": false,
          "internalType": "uint256",
          "name": "amount",
          "type": "uint256"
        }
      ],
      "name": "EmergencyWithdrawal",
      "type": "event"
    },
    {
      "anonymous": false,
      "inputs": [
        {
          "indexed": true,
          "internalType": "address",
          "name": "previousOwner",
          "type": "address"
        },
        {
          "indexed": true,
          "internalType": "address",
          "name": "newOwner",
          "type": "address"
        }
      ],
      "name": "OwnershipTransferred",
      "type": "event"
    },
    {
      "anonymous": false,
      "inputs": [
        {
          "indexed": true,
          "internalType": "address",
          "name": "tipper",
          "type": "address"
        },
        {
          "indexed": true,
          "internalType": "address",
          "name": "creator",
          "type": "address"
        },
        {
          "indexed": true,
          "internalType": "address",
          "name": "token",
          "type": "address"
        },
        {
          "indexed": false,
          "internalType": "uint256",
          "name": "amount",
          "type": "uint256"
        },
        {
          "indexed": false,
          "internalType": "string",
          "name": "message",
          "type": "string"
        },
        {
          "indexed": false,
          "internalType": "uint256",
          "name": "timestamp",
          "type": "uint256"
        }
      ],
      "name": "TipSent",
      "type": "event"
    },
    {
      "anonymous": false,
      "inputs": [
        {
          "indexed": true,
          "internalType": "address",
          "name": "creator",
          "type": "address"
        },
        {
          "indexed": true,
          "internalType": "address",
          "name": "token",
          "type": "address"
        },
        {
          "indexed": false,
          "internalType": "uint256",
          "name": "amount",
          "type": "uint256"
        },
        {
          "indexed": false,
          "internalType": "uint256",
          "name": "timestamp",
          "type": "uint256"
        }
      ],
      "name": "Withdrawal",
      "type": "event"
    },
    {
      "inputs": [],
      "name": "ETH_ADDRESS",
      "outputs": [
        {
          "internalType": "address",
          "name": "",
          "type": "address"
        }
      ],
      "stateMutability": "view",
      "type": "function"
    },
    {
      "inputs": [],
      "name": "MAX_MESSAGE_LENGTH",
      "outputs": [
        {
          "internalType": "uint256",
          "name": "",
          "type": "uint256"
        }
      ],
      "stateMutability": "view",
      "type": "function"
    },
    {
      "inputs": [],
      "name": "MAX_RECENT_TIPS",
      "outputs": [
        {
          "internalType": "uint256",
          "name": "",
          "type": "uint256"
        }
      ],
      "stateMutability": "view",
      "type": "function"
    },
    {
      "inputs": [
        {
          "internalType": "address",
          "name": "",
          "type": "address"
        },
        {
          "internalType": "uint256",
          "name": "",
          "type": "uint256"
        }
      ],
      "name": "creatorTips",
      "outputs": [
        {
          "internalType": "address",
          "name": "tipper",
          "type": "address"
        },
        {
          "internalType": "address",
          "name": "creator",
          "type": "address"
        },
        {
          "internalType": "address",
          "name": "token",
          "type": "address"
        },
        {
          "internalType": "uint256",
          "name": "amount",
          "type": "uint256"
        },
        {
          "internalType": "string",
          "name": "message",
          "type": "string"
        },
        {
          "internalType": "uint256",
          "name": "timestamp",
          "type": "uint256"
        }
      ],
      "stateMutability": "view",
      "type": "function"
    },
    {
      "inputs": [
        {
          "internalType": "address",
          "name": "",
          "type": "address"
        },
        {
          "internalType": "address",
          "name": "",
          "type": "address"
        }
      ],
      "name": "creatorTokenTips",
      "outputs": [
        {
          "internalType": "uint256",
          "name": "",
          "type": "uint256"
        }
      ],
      "stateMutability": "view",
      "type": "function"
    },
    {
      "inputs": [],
      "name": "emergencyWithdraw",
      "outputs": [],
      "stateMutability": "nonpayable",
      "type": "function"
    },
    {
      "inputs": [],
      "name": "fund",
      "outputs": [],
      "stateMutability": "payable",
      "type": "function"
    },
    {
      "inputs": [],
      "name": "getContractBalance",
      "outputs": [
        {
          "internalType": "uint256",
          "name": "",
          "type": "uint256"
        }
      ],
      "stateMutability": "view",
      "type": "function"
    },
    {
      "inputs": [
        {
          "internalType": "address",
          "name": "token",
          "type": "address"
        }
      ],
      "name": "getContractTokenBalance",
      "outputs": [
        {
          "internalType": "uint256",
          "name": "",
          "type": "uint256"
        }
      ],
      "stateMutability": "view",
      "type": "function"
    },
    {
      "inputs": [
        {
          "internalType": "address",
          "name": "creator",
          "type": "address"
        },
        {
          "internalType": "address",
          "name": "token",
          "type": "address"
        }
      ],
      "name": "getCreatorTotalTips",
      "outputs": [
        {
          "internalType": "uint256",
          "name": "",
          "type": "uint256"
        }
      ],
      "stateMutability": "view",
      "type": "function"
    },
    {
      "inputs": [
        {
          "internalType": "address",
          "name": "creator",
          "type": "address"
        },
        {
          "internalType": "uint256",
          "name": "limit",
          "type": "uint256"
        }
      ],
      "name": "getRecentTips",
      "outputs": [
        {
          "components": [
            {
              "internalType": "address",
              "name": "tipper",
              "type": "address"
            },
            {
              "internalType": "address",
              "name": "creator",
              "type": "address"
            },
            {
              "internalType": "address",
              "name": "token",
              "type": "address"
            },
            {
              "internalType": "uint256",
              "name": "amount",
              "type": "uint256"
            },
            {
              "internalType": "string",
              "name": "message",
              "type": "string"
            },
            {
              "internalType": "uint256",
              "name": "timestamp",
              "type": "uint256"
            }
          ],
          "internalType": "struct ITipping.Tip[]",
          "name": "",
          "type": "tuple[]"
        }
      ],
      "stateMutability": "view",
      "type": "function"
    },
    {
      "inputs": [
        {
          "internalType": "address",
          "name": "creator",
          "type": "address"
        }
      ],
      "name": "getTipCount",
      "outputs": [
        {
          "internalType": "uint256",
          "name": "",
          "type": "uint256"
        }
      ],
      "stateMutability": "view",
      "type": "function"
    },
    {
      "inputs": [
        {
          "internalType": "address",
          "name": "creator",
          "type": "address"
        }
      ],
      "name": "getTipsReceived",
      "outputs": [
        {
          "internalType": "uint256",
          "name": "",
          "type": "uint256"
        }
      ],
      "stateMutability": "view",
      "type": "function"
    },
    {
      "inputs": [
        {
          "internalType": "address",
          "name": "tipper",
          "type": "address"
        }
      ],
      "name": "getTipsSent",
      "outputs": [
        {
          "internalType": "uint256",
          "name": "",
          "type": "uint256"
        }
      ],
      "stateMutability": "view",
      "type": "function"
    },
    {
      "inputs": [],
      "name": "owner",
      "outputs": [
        {
          "internalType": "address",
          "name": "",
          "type": "address"
        }
      ],
      "stateMutability": "view",
      "type": "function"
    },
    {
      "inputs": [],
      "name": "renounceOwnership",
      "outputs": [],
      "stateMutability": "nonpayable",
      "type": "function"
    },
    {
      "inputs": [
        {
          "internalType": "address",
          "name": "creator",
          "type": "address"
        },
        {
          "internalType": "address",
          "name": "token",
          "type": "address"
        },
        {
          "internalType": "uint256",
          "name": "amount",
          "type": "uint256"
        },
        {
          "internalType": "string",
          "name": "message",
          "type": "string"
        }
      ],
      "name": "tip",
      "outputs": [],
      "stateMutability": "payable",
      "type": "function"
    },
    {
      "inputs": [
        {
          "internalType": "address",
          "name": "",
          "type": "address"
        }
      ],
      "name": "tipsReceived",
      "outputs": [
        {
          "internalType": "uint256",
          "name": "",
          "type": "uint256"
        }
      ],
      "stateMutability": "view",
      "type": "function"
    },
    {
      "inputs": [
        {
          "internalType": "address",
          "name": "",
          "type": "address"
        }
      ],
      "name": "tipsSent",
      "outputs": [
        {
          "internalType": "uint256",
          "name": "",
          "type": "uint256"
        }
      ],
      "stateMutability": "view",
      "type": "function"
    },
    {
      "inputs": [
        {
          "internalType": "address",
          "name": "newOwner",
          "type": "address"
        }
      ],
      "name": "transferOwnership",
      "outputs": [],
      "stateMutability": "nonpayable",
      "type": "function"
    },
    {
      "inputs": [
        {
          "internalType": "address",
          "name": "token",
          "type": "address"
        },
        {
          "internalType": "uint256",
          "name": "amount",
          "type": "uint256"
        }
      ],
      "name": "withdraw",
      "outputs": [],
      "stateMutability": "nonpayable",
      "type": "function"
    },
    {
      "stateMutability": "payable",
      "type": "receive"
    }
  ],
  "bytecode": "0x608060405234801561001057600080fd5b50338061003757604051631e4fbdf760e01b81526000600482015260240160405180910390fd5b61004081610046565b50610096565b600080546001600160a01b038381166001600160a01b0319831681178455604051919092169283917f8be0079c531659141344cd1fd0a4f28419497f9722a3daafe3b4186f6b6457e09190a35050565b611af3806100a56000396000f3fe60806040526004361061016e5760003560e01c8063715018a6116100cb578063cf8b20861161007f578063f2fde38b11610059578063f2fde38b146103d5578063f3fef3a3146103f5578063fb532ab01461041557600080fd5b8063cf8b208614610380578063db2e21bc146103a0578063e97bcbec146103b557600080fd5b80638da5cb5b116100b05780638da5cb5b14610331578063a734f06e14610363578063b60d42881461037857600080fd5b8063715018a6146102fc57806384ce13421461031157600080fd5b80632a02721111610122578063502d08e411610107578063502d08e41461029c57806355cec010146102c95780636f9fb98a146102e957600080fd5b80632a027211146102715780634c0cc7c61461028757600080fd5b80631d51106f116101535780631d51106f146101da5780631e93f1f7146102125780632252dc711461024457600080fd5b806314205e281461017a57806318bcf7f1146101ad57600080fd5b3661017557005b600080fd5b34801561018657600080fd5b5061019a610195366004611613565b61042a565b6040519081526020015b60405180910390f35b3480156101b957600080fd5b5061019a6101c8366004611613565b60026020526000908152604090205481565b3480156101e657600080fd5b5061019a6101f5366004611635565b600360209081526000928352604080842090915290825290205481565b34801561021e57600080fd5b5061023261022d366004611668565b610504565b6040516101a4969594939291906116d8565b34801561025057600080fd5b5061019a61025f366004611613565b60016020526000908152604090205481565b34801561027d57600080fd5b5061019a61011881565b61029a61029536600461173b565b6105f1565b005b3480156102a857600080fd5b506102bc6102b7366004611668565b610aba565b6040516101a49190611817565b3480156102d557600080fd5b5061019a6102e4366004611613565b610d38565b3480156102f557600080fd5b504761019a565b34801561030857600080fd5b5061029a610da0565b34801561031d57600080fd5b5061019a61032c366004611613565b610db4565b34801561033d57600080fd5b506000546001600160a01b03165b6040516001600160a01b0390911681526020016101a4565b34801561036f57600080fd5b5061034b600081565b61029a610e1c565b34801561038c57600080fd5b5061019a61039b366004611613565b610ea3565b3480156103ac57600080fd5b5061029a610f0b565b3480156103c157600080fd5b5061019a6103d0366004611635565b61101a565b3480156103e157600080fd5b5061029a6103f0366004611613565b6110dc565b34801561040157600080fd5b5061029a610410366004611668565b611133565b34801561042157600080fd5b5061019a603281565b6000816001600160a01b03811661047a5760405162461bcd60e51b815260206004820152600f60248201526e496e76616c6964206164647265737360881b60448201526064015b60405180910390fd5b6040517f70a082310000000000000000000000000000000000000000000000000000000081523060048201526001600160a01b038416906370a0823190602401602060405180830381865afa1580156104d7573d6000803e3d6000fd5b505050506040513d601f19601f820116820180604052508101906104fb91906118c8565b91505b50919050565b6004602052816000526040600020818154811061052057600080fd5b6000918252602090912060069091020180546001820154600283015460038401546004850180546001600160a01b0395861698509385169650919093169391610568906118e1565b80601f0160208091040260200160405190810160405280929190818152602001828054610594906118e1565b80156105e15780601f106105b6576101008083540402835291602001916105e1565b820191906000526020600020905b8154815290600101906020018083116105c457829003601f168201915b5050505050908060050154905086565b3360009081526005602052604090205460ff16156106515760405162461bcd60e51b815260206004820152600e60248201527f5265656e7472616e742063616c6c0000000000000000000000000000000000006044820152606401610471565b336000908152600560205260409020805460ff19166001179055836001600160a01b0381166106b45760405162461bcd60e51b815260206004820152600f60248201526e496e76616c6964206164647265737360881b6044820152606401610471565b836001600160a01b0381166106fd5760405162461bcd60e51b815260206004820152600f60248201526e496e76616c6964206164647265737360881b6044820152606401610471565b82610118815111156107515760405162461bcd60e51b815260206004820152601060248201527f4d65737361676520746f6f206c6f6e67000000000000000000000000000000006044820152606401610471565b600085116107a15760405162461bcd60e51b815260206004820152601d60248201527f416d6f756e74206d7573742062652067726561746572207468616e20300000006044820152606401610471565b336001600160a01b038816036107f95760405162461bcd60e51b815260206004820152601360248201527f43616e6e6f742074697020796f757273656c66000000000000000000000000006044820152606401610471565b846001600160a01b03871661085c578534146108575760405162461bcd60e51b815260206004820152601860248201527f496e636f7272656374204554482076616c75652073656e7400000000000000006044820152606401610471565b6108e4565b34156108cf5760405162461bcd60e51b8152602060048201526024808201527f4e6f204554482073686f756c642062652073656e7420666f722045524332302060448201527f74697073000000000000000000000000000000000000000000000000000000006064820152608401610471565b6108e46001600160a01b038816333089611412565b6001600160a01b0388166000908152600160205260408120805483929061090c90849061192b565b9091555050336000908152600260205260408120805483929061093090849061192b565b90915550506001600160a01b038089166000908152600360209081526040808320938b168352929052908120805483929061096c90849061192b565b90915550506001600160a01b038089166000818152600460208181526040808420815160c0810183523381528084019687528e881692810192835260608101898152608082018e81524260a08401528354600181810186559489529590972082516006909602018054958a1673ffffffffffffffffffffffffffffffffffffffff1996871617815597519288018054938a1693861693909317909255915160028701805491909816931692909217909555516003840155905190820190610a339082611992565b5060a082015181600501555050866001600160a01b0316886001600160a01b0316336001600160a01b03167f6eaf1a8c0d81b8cf61feb56f76b911a85ffcbe5c6819c465e1d555cfed0e473e848942604051610a9193929190611a52565b60405180910390a45050336000908152600560205260409020805460ff19169055505050505050565b6060826001600160a01b038116610b055760405162461bcd60e51b815260206004820152600f60248201526e496e76616c6964206164647265737360881b6044820152606401610471565b6001600160a01b03841660009081526004602052604081205490848210610b2c5784610b2e565b815b905060328110610b3f576032610b41565b805b905060008167ffffffffffffffff811115610b5e57610b5e611725565b604051908082528060200260200182016040528015610bbd57816020015b6040805160c081018252600080825260208083018290529282018190526060808301829052608083015260a08201528252600019909201910181610b7c5790505b50905060005b82811015610d2d576001600160a01b038816600090815260046020526040902081610bef600187611a7b565b610bf99190611a7b565b81548110610c0957610c09611a8e565b60009182526020918290206040805160c081018252600690930290910180546001600160a01b039081168452600182015481169484019490945260028101549093169082015260038201546060820152600482018054919291608084019190610c71906118e1565b80601f0160208091040260200160405190810160405280929190818152602001828054610c9d906118e1565b8015610cea5780601f10610cbf57610100808354040283529160200191610cea565b820191906000526020600020905b815481529060010190602001808311610ccd57829003601f168201915b50505050508152602001600582015481525050828281518110610d0f57610d0f611a8e565b60200260200101819052508080610d2590611aa4565b915050610bc3565b509695505050505050565b6000816001600160a01b038116610d835760405162461bcd60e51b815260206004820152600f60248201526e496e76616c6964206164647265737360881b6044820152606401610471565b50506001600160a01b031660009081526001602052604090205490565b610da8611494565b610db260006114da565b565b6000816001600160a01b038116610dff5760405162461bcd60e51b815260206004820152600f60248201526e496e76616c6964206164647265737360881b6044820152606401610471565b50506001600160a01b031660009081526002602052604090205490565b60003411610e6c5760405162461bcd60e51b815260206004820152601560248201527f4d7573742073656e642045544820746f2066756e6400000000000000000000006044820152606401610471565b60405134815233907f0939f6f4877faf071412e527bc4c6d0bd65ad077e52b57334f7765265647a7f19060200160405180910390a2565b6000816001600160a01b038116610eee5760405162461bcd60e51b815260206004820152600f60248201526e496e76616c6964206164647265737360881b6044820152606401610471565b50506001600160a01b031660009081526004602052604090205490565b610f13611494565b476000610f286000546001600160a01b031690565b6001600160a01b03168260405160006040518083038185875af1925050503d8060008114610f72576040519150601f19603f3d011682016040523d82523d6000602084013e610f77565b606091505b5050905080610fc85760405162461bcd60e51b815260206004820152601d60248201527f456d657267656e637920455448207472616e73666572206661696c65640000006044820152606401610471565b6000546001600160a01b03166001600160a01b03167f23d6711a1d031134a36921253c75aa59e967d38e369ac625992824315e204f208360405161100e91815260200190565b60405180910390a25050565b6000826001600160a01b0381166110655760405162461bcd60e51b815260206004820152600f60248201526e496e76616c6964206164647265737360881b6044820152606401610471565b826001600160a01b0381166110ae5760405162461bcd60e51b815260206004820152600f60248201526e496e76616c6964206164647265737360881b6044820152606401610471565b5050506001600160a01b03918216600090815260036020908152604080832093909416825291909152205490565b6110e4611494565b6001600160a01b038116611127576040517f1e4fbdf700000000000000000000000000000000000000000000000000000000815260006004820152602401610471565b611130816114da565b50565b3360009081526005602052604090205460ff16156111935760405162461bcd60e51b815260206004820152600e60248201527f5265656e7472616e742063616c6c0000000000000000000000000000000000006044820152606401610471565b336000908152600560205260409020805460ff19166001179055816001600160a01b0381166111f65760405162461bcd60e51b815260206004820152600f60248201526e496e76616c6964206164647265737360881b6044820152606401610471565b600082116112465760405162461bcd60e51b815260206004820152601d60248201527f416d6f756e74206d7573742062652067726561746572207468616e20300000006044820152606401610471565b3360009081526003602090815260408083206001600160a01b03871684529091529020548211156112b95760405162461bcd60e51b815260206004820152601460248201527f496e73756666696369656e742062616c616e63650000000000000000000000006044820152606401610471565b3360009081526003602090815260408083206001600160a01b0387168452909152812080548492906112ec908490611a7b565b90915550506001600160a01b03831661139d57604051600090339084908381818185875af1925050503d8060008114611341576040519150601f19603f3d011682016040523d82523d6000602084013e611346565b606091505b50509050806113975760405162461bcd60e51b815260206004820152601360248201527f455448207472616e73666572206661696c6564000000000000000000000000006044820152606401610471565b506113b1565b6113b16001600160a01b0384163384611537565b604080518381524260208201526001600160a01b0385169133917fc2b4a290c20fb28939d29f102514fbffd2b73c059ffba8b78250c94161d5fcc6910160405180910390a35050336000908152600560205260409020805460ff1916905550565b6040516001600160a01b03848116602483015283811660448301526064820183905261148e9186918216906323b872dd906084015b604051602081830303815290604052915060e01b6020820180517bffffffffffffffffffffffffffffffffffffffffffffffffffffffff838183161783525050505061156d565b50505050565b6000546001600160a01b03163314610db2576040517f118cdaa7000000000000000000000000000000000000000000000000000000008152336004820152602401610471565b600080546001600160a01b0383811673ffffffffffffffffffffffffffffffffffffffff19831681178455604051919092169283917f8be0079c531659141344cd1fd0a4f28419497f9722a3daafe3b4186f6b6457e09190a35050565b6040516001600160a01b0383811660248301526044820183905261156891859182169063a9059cbb90606401611447565b505050565b600080602060008451602086016000885af180611590576040513d6000823e3d81fd5b50506000513d915081156115a85780600114156115b5565b6001600160a01b0384163b155b1561148e576040517f5274afe70000000000000000000000000000000000000000000000000000000081526001600160a01b0385166004820152602401610471565b80356001600160a01b038116811461160e57600080fd5b919050565b60006020828403121561162557600080fd5b61162e826115f7565b9392505050565b6000806040838503121561164857600080fd5b611651836115f7565b915061165f602084016115f7565b90509250929050565b6000806040838503121561167b57600080fd5b611684836115f7565b946020939093013593505050565b6000815180845260005b818110156116b85760208185018101518683018201520161169c565b506000602082860101526020601f19601f83011685010191505092915050565b60006001600160a01b038089168352808816602084015280871660408401525084606083015260c0608083015261171260c0830185611692565b90508260a0830152979650505050505050565b634e487b7160e01b600052604160045260246000fd5b6000806000806080858703121561175157600080fd5b61175a856115f7565b9350611768602086016115f7565b925060408501359150606085013567ffffffffffffffff8082111561178c57600080fd5b818701915087601f8301126117a057600080fd5b8135818111156117b2576117b2611725565b604051601f8201601f19908116603f011681019083821181831017156117da576117da611725565b816040528281528a60208487010111156117f357600080fd5b82602086016020830137600060208483010152809550505050505092959194509250565b60006020808301818452808551808352604092508286019150828160051b87010184880160005b838110156118ba57603f19898403018552815160c06001600160a01b03808351168652808a840151168a87015280898401511689870152506060808301518187015250608080830151828288015261189883880182611692565b60a094850151979094019690965250509487019492509086019060010161183e565b509098975050505050505050565b6000602082840312156118da57600080fd5b5051919050565b600181811c908216806118f557607f821691505b6020821081036104fe57634e487b7160e01b600052602260045260246000fd5b634e487b7160e01b600052601160045260246000fd5b8082018082111561193e5761193e611915565b92915050565b601f82111561156857600081815260208120601f850160051c8101602086101561196b5750805b601f850160051c820191505b8181101561198a57828155600101611977565b505050505050565b815167ffffffffffffffff8111156119ac576119ac611725565b6119c0816119ba84546118e1565b84611944565b602080601f8311600181146119f557600084156119dd5750858301515b600019600386901b1c1916600185901b17855561198a565b600085815260208120601f198616915b82811015611a2457888601518255948401946001909101908401611a05565b5085821015611a425787850151600019600388901b60f8161c191681555b5050505050600190811b01905550565b838152606060208201526000611a6b6060830185611692565b9050826040830152949350505050565b8181038181111561193e5761193e611915565b634e487b7160e01b600052603260045260246000fd5b600060018201611ab657611ab6611915565b506001019056fea26469706673582212202f56cfb5ec1850c240e29f3fb41ffeb14e7f83d4be4113f38492f5e80134fe3164736f6c63430008140033",
  "linkReferences": {},
  "deployedLinkReferences": {}
}